:100000000C9446000C9463000C9463000C94630001
:100010000C9463000C9463000C9463000C946300D4
:100020000C9463000C9463000C9463000C946300C4
:100030000C9463000C9463000C9463000C946300B4
:100040000C9463000C9463000C9463000C946300A4
:100050000C9463000C9463000C9463000C94630094
:100060000C9463000C9463000C9463000C94630084
:100070000C9463000C9463000C9463000C94630074
:100080000C9463000C9463000C94630011241FBE55
:10009000CFEFD0E1DEBFCDBF11E0A0E0B1E0ECECEE
:1000A000F9E002C005900D92A433B107D9F711E031
:1000B000A4E3B1E001C01D92A634B107E1F70E94AC
:1000C0007D040C94E4040C940000DF93CF93CDB72F
:1000D000DEB7A4E7B0E0E4E7F0E0808184608C93D1
:1000E000E0E7F0E080E28083E1E7F0E01082CF918A
:1000F000DF910895DF93CF930F92CDB7DEB7898359
:10010000E3E7F0E089818083E4E7F0E084E880833E
:100110000F90CF91DF910895DF93CF9300D00F928E
:10012000CDB7DEB789836A83E4E7F0E084EA8083B1
:10013000E4E7F0E080818823DCF7E1E7F0E080810C
:10014000882F90E0887F90708830910519F081E0C9
:100150008B8344C080ED0E947A00E4E7F0E0808168
:100160008823DCF7E1E7F0E08081882F90E0887F4A
:1001700090708831910519F081E08B832FC08981BF
:100180000E947A00E4E7F0E080818823DCF7E1E771
:10019000F0E08081882F90E0887F90708832910510
:1001A00019F081E08B831AC08A810E947A00E4E70B
:1001B000F0E080818823DCF7E1E7F0E08081882FA0
:1001C00090E0887F90708832910519F081E08B83F0
:1001D00005C0E4E7F0E084E980831B828B810F9007
:1001E0000F900F90CF91DF910895DF93CF9300D0C0
:1001F0000F92CDB7DEB78A831982E4E7F0E084EA94
:100200008083E4E7F0E080818823DCF7E1E7F0E039
:100210008081882F90E0887F90708830910519F058
:1002200081E08B8375C080ED0E947A00E4E7F0E006
:1002300080818823DCF7E1E7F0E08081882F90E07F
:10024000887F90708831910519F081E08B8360C0C0
:100250008A810E947A00E4E7F0E080818823DCF75D
:10026000E1E7F0E08081882F90E0887F907088320D
:10027000910519F081E08B834BC0E4E7F0E084EA5C
:100280008083E4E7F0E080818823DCF7E1E7F0E0B9
:100290008081882F90E0887F90708031910519F0DF
:1002A00081E08B8335C081ED0E947A00E4E7F0E0C5
:1002B00080818823DCF7E1E7F0E08081882F90E0FF
:1002C000887F90708034910519F081E08B8320C085
:1002D000E4E7F0E084E88083E4E7F0E080818823CD
:1002E000DCF7E1E7F0E08081882F90E0887F907074
:1002F0008835910519F081E08B830AC0E3E7F0E0CF
:1003000080818983E4E7F0E084E9808389818B83BD
:100310008B810F900F900F90CF91DF910895DF9315
:10032000CF9300D000D0CDB7DEB78C838C818B8388
:100330001A828B818A3080F00CC08B818A508B832B
:100340008A81805F8A839B818A81890F89838981E1
:100350008C838B818A3088F78C810F900F900F905F
:100360000F90CF91DF910895DF93CF9300D000D00D
:10037000CDB7DEB78C838C818B831A828B818031E1
:1003800080F00CC08B8180518B838A81865F8A8349
:100390009B818A81890F898389818C838B818031BC
:1003A00088F78C810F900F900F900F90CF91DF9175
:1003B0000895DF93CF9300D000D0CDB7DEB79C83F4
:1003C0008B8319820BC01A8203C08A818F5F8A8354
:1003D0008A818237D0F389818F5F89838981282F31
:1003E00030E08B819C812817390768F30F900F90BC
:1003F0000F900F90CF91DF910895DF93CF9300D0AE
:10040000CDB7DEB719820BC01A8203C08A818F5F15
:100410008A838A818436D0F389818F5F8983898139
:10042000823090F30F900F90CF91DF910895DF937A
:10043000CF930F92CDB7DEB78983A5E3B0E0E5E3B4
:10044000F0E080818B7F8C93A5E3B0E0E5E3F0E002
:1004500080818E7F8C93A5E3B0E0E5E3F0E08081BE
:100460008D7F8C93EBE3F0E089818083A5E3B0E09E
:10047000E5E3F0E0808184608C930E94FD01A5E3B8
:10048000B0E0E5E3F0E080818B7F8C930F90CF911B
:10049000DF910895DF93CF930F92CDB7DEB78983B5
:1004A000A5E3B0E0E5E3F0E080818B7F8C93A5E3EA
:1004B000B0E0E5E3F0E0808181608C93A5E3B0E0FB
:1004C000E5E3F0E080818D7F8C93EBE3F0E08981C0
:1004D0008083A5E3B0E0E5E3F0E0808184608C9365
:1004E0000E94FD01A5E3B0E0E5E3F0E080818B7FB1
:1004F0008C930F90CF91DF910895DF93CF93CDB779
:10050000DEB78AE590E00E94D90188E30E941702D5
:100510008EE190E00E94D90188E30E9417028EE1EB
:1005200090E00E94D90188E30E94170288E30E94AC
:10053000170288E00E94170281E00E94170286E0FD
:100540000E9417028CE00E941702CF91DF9108955C
:10055000DF93CF93CDB7DEB785E80E941702809175
:1005600022019AE0692F0E94C404882F90E0FC01C8
:10057000E75DFE4F808180933501809122019AE0F2
:10058000692F0E94C404892F882F90E0FC01E75D49
:10059000FE4F808180933601809135010E944A028E
:1005A000809136010E944A0288E80E9417028091D9
:1005B00023019AE0692F0E94C404882F90E0FC0177
:1005C000E75DFE4F808180933701809123019AE09F
:1005D000692F0E94C404892F882F90E0FC01E75DF9
:1005E000FE4F808180933801809137010E944A023A
:1005F000809138010E944A028BE80E941702809184
:1006000034019AE0692F0E94C404882F90E0FC0115
:10061000E75DFE4F808180933901809134019AE03B
:10062000692F0E94C404892F882F90E0FC01E75DA8
:10063000FE4F808180933A01809139010E944A02E5
:1006400080913A010E944A0282EC0E941702809136
:100650002401909125012AE030E0B9010E94D004E4
:10066000CB01FC01E75DFE4F808180933C018091CE
:100670002401909125012AE030E0B9010E94D004C4
:10068000FC01E75DFE4F808180933D0180913C013C
:100690000E944A0280913D010E944A0285EC0E941C
:1006A0001702809126019AE0692F0E94C404882FC6
:1006B00090E0FC01E75DFE4F808180933E018091D8
:1006C00026019AE0692F0E94C404892F882F90E0A8
:1006D000FC01E75DFE4F808180933F0180913E01E8
:1006E0000E944A0280913F010E944A0288EC0E94C7
:1006F0001702809127019AE0692F0E94C404882F75
:1007000090E0FC01E75DFE4F808180934001809185
:1007100027019AE0692F0E94C404892F882F90E056
:10072000FC01E75DFE4F8081809341018091400193
:100730000E944A02809141010E944A028FEC0E946D
:10074000170280912801882F90E0FC01E75DFE4FA1
:10075000808180934301809143010E944A02CF919E
:10076000DF910895DF93CF93CDB7DEB78091340149
:100770000E948F0180933401809123010E948F0198
:1007800080932301809122010E948F018093220196
:10079000809127010E948F0180932701809124017D
:1007A000909125010E948F01882F90E09093250160
:1007B00080932401809126010E948F01809326015D
:1007C0009091340180E0692F0E948C009091230168
:1007D00081E0692F0E948C009091220182E0692FB4
:1007E0000E948C009091280183E0692F0E948C0068
:1007F0009091270184E0692F0E948C00909126013E
:1008000085E0692F0E948C00809124019091250140
:10081000982F86E0692F0E948C00CF91DF91089578
:10082000DF93CF93CDB7DEB780E00E94F5008093D1
:100830003401809134010E94B4018093340181E03D
:100840000E94F50080932301809123010E94B4014E
:1008500080932301A89582E00E94F50080932201F5
:10086000809122010E94B4018093220183E00E94C2
:10087000F50080932801A89584E00E94F5008093FC
:100880002701809127010E94B4018093270185E010
:100890000E94F50080932601809126010E94B401F8
:1008A00080932601A89586E00E94F500882F90E0AD
:1008B000909325018093240180912401909125013A
:1008C0000E94B401882F90E0909325018093240129
:1008D000CF91DF910895DF93CF9300D0CDB7DEB7EE
:1008E00089836A8389810E9417028A810E944A0251
:1008F0000F900F90CF91DF910895DF93CF93CDB7F5
:10090000DEB7EAE3F0E08FEF8083E4E3F0E08FEF1F
:1009100080830E9465000E947D0280E80E94170289
:10092000109245010FC080914501882F90E0FC0195
:10093000E050FF4F80810E944A02809145018F5F05
:100940008093450180914501803168F380EC0E94DD
:100950001702109245010FC080914501882F90E049
:10096000FC01EF5EFE4F80810E944A0280914501AA
:100970008F5F8093450180914501803168F30E942B
:1009800010040E94A802FBCF991B79E004C0991FB4
:10099000961708F0961B881F7A95C9F780950895D9
:1009A000AA1BBB1B51E107C0AA1FBB1FA617B70795
:1009B00010F0A61BB70B881F991F5A95A9F78095B1
:0C09C0009095BC01CD010895F894FFCF84
:1009CC0054696D653A20203A20203A2020202020BE
:1009DC0000323020202E20202E20207765656B3AA7
:1009EC00200010150C00071B05303132333435361E
:0409FC00373839004F
:00000001FF
