:10038400112954696D653A20203A20203A20202012
:10039400202000113A323020202E20202E202077D9
:1003A40065656B3A2000010D0D014C22014B1E02C4
:1003B4000B000C010A0701081E0109010A1F303154
:0803C400323334353637383985
:10048B00E4FDEDC39FE49E5009E4FC0CBC72FC0D33
:02049B0080F0EF
:01049D00223C
:0704CF00D2911204D6D29075
:0504D6000000000022FF
:0C04C200E4FFE4FE0EBE72FC0FBF02F669
:0104CE00220B
:0804E5001204CFC2910204D6FB
:0A04DB00C2911204D1D2910204D69E
:10049E00E4FF309109EFC3943250030F80F4C29001
:0304AE000204D66F
:0302DA000D7FD0C5
:0202DD00A9076F
:1002DF001204E5E4FAEA7006AE01AC018010BA012F
:1002EF0006AE05AC058007BA0204AE03AC03E4FF0B
:1002FF00C2901204D6AE04530680BE8004D2918001
:10030F0002C2911204D1C2901204D6EC25E0FC0F68
:10031F00BF08DD1204CF12049E0ABA03B80204DB31
:0201A0008F4D81
:1001A2001204E5E4FAEA7006AE4DAC4D8013BA01D2
:1001B20006AE05AC05800ABA02071204E5AE03AC2E
:1001C20003E4FFC2901204D6AE04530680BE80043C
:1001D200D2918002C2911204D1C2901204D6EC25AF
:1001E200E0FC0FBF08DD1204CF12049E0ABA03B569
:1001F200E4FFE925E0F9D2911204D6C2901204D1AB
:100202003091034301010FBF08E812049E1204DB80
:02021200AF013A
:0102140022C7
:090471007F1E7E0012048B7F380F
:10047A00C2A2C2A0C2A18F8000D2A21204C2C2A28A
:01048A00224F
:1004B100C2A2D2A0C2A18F8000D2A21204C2C2A243
:0104C1002218
:100411007F5A1204731204711204717F3812047A24
:100421007F0812047A7F0112047A7F0612047A7F10
:040431000C02047A3B
:0504ED00D291D2902223
:100003007F8512047AE50D75F00A84241FF8E6F55E
:100013000FE50D75F00A84741F25F0F8E6F510AFAF
:100023000F1204B1AF101204B17F8812047AE54CA9
:1000330075F00A84241FF8E6F511E54C75F00A847F
:10004300741F25F0F8E6F512AF111204B1AF1212C6
:1000530004B17F8B12047AE54B75F00A84241FF8F0
:10006300E6F513E54B75F00A84741F25F0F8E6F501
:1000730014AF131204B1AF141204B17FC212047A85
:10008300AE0BAF0C7C007D0A12032F741F2FF8E612
:10009300F516AE0BAF0C7C007D0A12032F741F2DD7
:1000A300F8E6F517AF161204B1AF171204B17FC506
:1000B30012047AE50A75F00A84241FF8E6F518E5B8
:1000C3000A75F00A84741F25F0F8E6F519AF1812C3
:1000D30004B1AF191204B17FC812047AE50875F0B0
:1000E3000A84241FF8E6F51AE50875F00A84741FDC
:1000F30025F0F8E6F51BAF1A1204B1AF1B1204B1D9
:100103007FCF12047A741F2509F8E6F51DFF020458
:01011300B13A
:10043500AE07E4FDEEC3940A4013EEC3940A400DE3
:0D04450074F62EFE74102DFD2EFCFF80EDD0
:010452002287
:10045300AE07E4FDEEC394104013EEC39410400DB9
:0D04630074F02EFE740A2DFD2EFCFF80EDBE
:010470002269
:10027A00AF4B1204358F4BAF4C1204358F4CAF0D78
:10028A001204358F0DAF081204358F08AF0C120413
:10029A0035750B008F0CAF0A1204358F0AAB4BE48D
:1002AA00FD7FD01202DDAB4C1202DAAB0D1202DA7C
:1002BA00AB090D7FD01202DDAB080D7FD01202DD33
:1002CA00AB0A0D7FD01202DDAB0C0D7FD00202DD2E
:100215007BD1E4FD7FD01201A08F4B1204538F4B8D
:100225007D017FD01201A08F4C1204538F4C7D02AB
:100235007FD01201A08F0D1204538F0D7D037FD047
:100245001201A08F090D7FD01201A08F081204534F
:100255008F087D057FD01201A08F0A1204538F0AE3
:100265007D067FD01201A0750B008F0C120453750B
:050275000B008F0C22BC
:1003CD001204ED1204117F8012047AE4F50E7429E3
:1003DD00250EF8E6FF1204B1050EE50EC39410408C
:1003ED00ED7FC012047AE4F50E743A250EF8E6FF9F
:1003FD001204B1050EE50EC3941040ED1202151254
:04040D00000380F870
:03000000020114E6
:0C011400787FE4F6D8FD75814D02015B98
:10032F00BC000BBE0029EF8DF084FFADF022E4CCB2
:10033F00F875F008EF2FFFEE33FEEC33FCEE9DEC7B
:10034F00984005FCEE9DFE0FD5F0E9E4CEFD22EDC1
:10035F00F8F5F0EE8420D21CFEADF075F008EF2F0B
:10036F00FFED33FD4007985006D5F0F222C398FDFC
:05037F000FD5F0EA2299
:100120000203CDE493A3F8E493A34003F68001F225
:1001300008DFF48029E493A3F85407240CC8C333E0
:10014000C4540F4420C8834004F456800146F6DFAF
:10015000E4800B0102040810204080900384E47EB8
:10016000019360BCA3FF543F30E509541FFEE493A4
:10017000A360010ECF54C025E060A840B8E493A36B
:10018000FAE493A3F8E493A3C8C582C8CAC583CA96
:10019000F0A3C8C582C8CAC583CADFE9DEE780BE4E
:0103CC000030
:00000001FF
